{
  "_format": "hh-sol-artifact-1",
  "contractName": "Marketplace",
  "sourceName": "contracts/Marketplace.sol",
  "abi": [
    {
      "inputs": [
        {
          "internalType": "uint256",
          "name": "_listingPrice",
          "type": "uint256"
        }
      ],
      "stateMutability": "nonpayable",
      "type": "constructor"
    },
    {
      "inputs": [
        {
          "internalType": "uint256",
          "name": "itemId",
          "type": "uint256"
        }
      ],
      "name": "buyNft",
      "outputs": [],
      "stateMutability": "payable",
      "type": "function"
    },
    {
      "inputs": [
        {
          "internalType": "uint256",
          "name": "itemId",
          "type": "uint256"
        },
        {
          "internalType": "uint256",
          "name": "price",
          "type": "uint256"
        }
      ],
      "name": "changeNFTPrice",
      "outputs": [],
      "stateMutability": "nonpayable",
      "type": "function"
    },
    {
      "inputs": [
        {
          "internalType": "uint256",
          "name": "itemId",
          "type": "uint256"
        }
      ],
      "name": "delistNft",
      "outputs": [],
      "stateMutability": "nonpayable",
      "type": "function"
    },
    {
      "inputs": [
        {
          "internalType": "uint256",
          "name": "itemId",
          "type": "uint256"
        }
      ],
      "name": "fetchAnItem",
      "outputs": [
        {
          "components": [
            {
              "internalType": "address",
              "name": "nftContract",
              "type": "address"
            },
            {
              "internalType": "uint256",
              "name": "tokenId",
              "type": "uint256"
            },
            {
              "internalType": "address payable",
              "name": "seller",
              "type": "address"
            },
            {
              "internalType": "uint256",
              "name": "price",
              "type": "uint256"
            },
            {
              "internalType": "bool",
              "name": "sold",
              "type": "bool"
            }
          ],
          "internalType": "struct Marketplace.Item",
          "name": "",
          "type": "tuple"
        }
      ],
      "stateMutability": "view",
      "type": "function"
    },
    {
      "inputs": [],
      "name": "fetchItems",
      "outputs": [
        {
          "components": [
            {
              "internalType": "address",
              "name": "nftContract",
              "type": "address"
            },
            {
              "internalType": "uint256",
              "name": "tokenId",
              "type": "uint256"
            },
            {
              "internalType": "address payable",
              "name": "seller",
              "type": "address"
            },
            {
              "internalType": "uint256",
              "name": "price",
              "type": "uint256"
            },
            {
              "internalType": "bool",
              "name": "sold",
              "type": "bool"
            }
          ],
          "internalType": "struct Marketplace.Item[]",
          "name": "",
          "type": "tuple[]"
        }
      ],
      "stateMutability": "view",
      "type": "function"
    },
    {
      "inputs": [
        {
          "internalType": "uint256",
          "name": "",
          "type": "uint256"
        }
      ],
      "name": "items",
      "outputs": [
        {
          "internalType": "address",
          "name": "nftContract",
          "type": "address"
        },
        {
          "internalType": "uint256",
          "name": "tokenId",
          "type": "uint256"
        },
        {
          "internalType": "address payable",
          "name": "seller",
          "type": "address"
        },
        {
          "internalType": "uint256",
          "name": "price",
          "type": "uint256"
        },
        {
          "internalType": "bool",
          "name": "sold",
          "type": "bool"
        }
      ],
      "stateMutability": "view",
      "type": "function"
    },
    {
      "inputs": [
        {
          "internalType": "address",
          "name": "nftContract",
          "type": "address"
        },
        {
          "internalType": "uint256",
          "name": "_tokenId",
          "type": "uint256"
        },
        {
          "internalType": "uint256",
          "name": "price",
          "type": "uint256"
        }
      ],
      "name": "listNft",
      "outputs": [
        {
          "internalType": "uint256",
          "name": "",
          "type": "uint256"
        }
      ],
      "stateMutability": "payable",
      "type": "function"
    },
    {
      "inputs": [],
      "name": "listingPrice",
      "outputs": [
        {
          "internalType": "uint256",
          "name": "",
          "type": "uint256"
        }
      ],
      "stateMutability": "view",
      "type": "function"
    }
  ],
  "bytecode": "0x60806040523480156200001157600080fd5b506040516200156e3803806200156e83398181016040528101906200003791906200008d565b60016000819055508060028190555050620000bf565b600080fd5b6000819050919050565b620000678162000052565b81146200007357600080fd5b50565b60008151905062000087816200005c565b92915050565b600060208284031215620000a657620000a56200004d565b5b6000620000b68482850162000076565b91505092915050565b61149f80620000cf6000396000f3fe60806040526004361061007b5760003560e01c8063b4152b5f1161004e578063b4152b5f14610119578063bfb231d214610156578063c78f19f914610197578063c922b17c146101c25761007b565b80630fd76c7c14610080578063243adbdd146100a95780634e791483146100c5578063ad78ba7b146100ee575b600080fd5b34801561008c57600080fd5b506100a760048036038101906100a29190610d66565b6101f2565b005b6100c360048036038101906100be9190610da6565b6102b8565b005b3480156100d157600080fd5b506100ec60048036038101906100e79190610da6565b6104af565b005b3480156100fa57600080fd5b506101036106f1565b6040516101109190610f76565b60405180910390f35b34801561012557600080fd5b50610140600480360381019061013b9190610da6565b61082b565b60405161014d9190611000565b60405180910390f35b34801561016257600080fd5b5061017d60048036038101906101789190610da6565b610948565b60405161018e959493929190611057565b60405180910390f35b3480156101a357600080fd5b506101ac6109db565b6040516101b991906110aa565b60405180910390f35b6101dc60048036038101906101d791906110f1565b6109e1565b6040516101e991906110aa565b60405180910390f35b60006003838154811061020857610207611144565b5b906000526020600020906005020190508060020160009054906101000a900473ffffffffffffffffffffffffffffffffffffffff1673ffffffffffffffffffffffffffffffffffffffff163373ffffffffffffffffffffffffffffffffffffffff16146102aa576040517f08c379a00000000000000000000000000000000000000000000000000000000081526004016102a1906111d0565b60405180910390fd5b818160030181905550505050565b6102c0610c51565b6000600382815481106102d6576102d5611144565b5b90600052602060002090600502019050600015158160040160009054906101000a900460ff1615151461033e576040517f08c379a00000000000000000000000000000000000000000000000000000000081526004016103359061123c565b60405180910390fd5b80600301543414610384576040517f08c379a000000000000000000000000000000000000000000000000000000000815260040161037b906112a8565b60405180910390fd5b60018160040160006101000a81548160ff0219169083151502179055508060020160009054906101000a900473ffffffffffffffffffffffffffffffffffffffff1673ffffffffffffffffffffffffffffffffffffffff166108fc349081150290604051600060405180830381858888f1935050505015801561040b573d6000803e3d6000fd5b508060000160009054906101000a900473ffffffffffffffffffffffffffffffffffffffff1673ffffffffffffffffffffffffffffffffffffffff166323b872dd303384600101546040518463ffffffff1660e01b8152600401610471939291906112c8565b600060405180830381600087803b15801561048b57600080fd5b505af115801561049f573d6000803e3d6000fd5b50505050506104ac610ca0565b50565b6000600382815481106104c5576104c4611144565b5b906000526020600020906005020190508060020160009054906101000a900473ffffffffffffffffffffffffffffffffffffffff1673ffffffffffffffffffffffffffffffffffffffff163373ffffffffffffffffffffffffffffffffffffffff1614610567576040517f08c379a000000000000000000000000000000000000000000000000000000000815260040161055e906111d0565b60405180910390fd5b600015158160040160009054906101000a900460ff161515146105bf576040517f08c379a00000000000000000000000000000000000000000000000000000000081526004016105b69061123c565b60405180910390fd5b8060000160009054906101000a900473ffffffffffffffffffffffffffffffffffffffff1673ffffffffffffffffffffffffffffffffffffffff166323b872dd303384600101546040518463ffffffff1660e01b8152600401610624939291906112c8565b600060405180830381600087803b15801561063e57600080fd5b505af1158015610652573d6000803e3d6000fd5b505050506003828154811061066a57610669611144565b5b9060005260206000209060050201600080820160006101000a81549073ffffffffffffffffffffffffffffffffffffffff021916905560018201600090556002820160006101000a81549073ffffffffffffffffffffffffffffffffffffffff021916905560038201600090556004820160006101000a81549060ff021916905550505050565b60606003805480602002602001604051908101604052809291908181526020016000905b8282101561082257838290600052602060002090600502016040518060a00160405290816000820160009054906101000a900473ffffffffffffffffffffffffffffffffffffffff1673ffffffffffffffffffffffffffffffffffffffff1673ffffffffffffffffffffffffffffffffffffffff168152602001600182015481526020016002820160009054906101000a900473ffffffffffffffffffffffffffffffffffffffff1673ffffffffffffffffffffffffffffffffffffffff1673ffffffffffffffffffffffffffffffffffffffff168152602001600382015481526020016004820160009054906101000a900460ff16151515158152505081526020019060010190610715565b50505050905090565b610833610cce565b60006003838154811061084957610848611144565b5b90600052602060002090600502016040518060a00160405290816000820160009054906101000a900473ffffffffffffffffffffffffffffffffffffffff1673ffffffffffffffffffffffffffffffffffffffff1673ffffffffffffffffffffffffffffffffffffffff168152602001600182015481526020016002820160009054906101000a900473ffffffffffffffffffffffffffffffffffffffff1673ffffffffffffffffffffffffffffffffffffffff1673ffffffffffffffffffffffffffffffffffffffff168152602001600382015481526020016004820160009054906101000a900460ff161515151581525050905080915050919050565b6003818154811061095857600080fd5b90600052602060002090600502016000915090508060000160009054906101000a900473ffffffffffffffffffffffffffffffffffffffff16908060010154908060020160009054906101000a900473ffffffffffffffffffffffffffffffffffffffff16908060030154908060040160009054906101000a900460ff16905085565b60025481565b60006109eb610c51565b60008211610a2e576040517f08c379a0000000000000000000000000000000000000000000000000000000008152600401610a259061134b565b60405180910390fd5b6002543414610a72576040517f08c379a0000000000000000000000000000000000000000000000000000000008152600401610a69906113dd565b60405180910390fd5b6000610a7e6001610caa565b905060036040518060a001604052808773ffffffffffffffffffffffffffffffffffffffff1681526020018681526020013373ffffffffffffffffffffffffffffffffffffffff16815260200185815260200160001515815250908060018154018082558091505060019003906000526020600020906005020160009091909190915060008201518160000160006101000a81548173ffffffffffffffffffffffffffffffffffffffff021916908373ffffffffffffffffffffffffffffffffffffffff1602179055506020820151816001015560408201518160020160006101000a81548173ffffffffffffffffffffffffffffffffffffffff021916908373ffffffffffffffffffffffffffffffffffffffff1602179055506060820151816003015560808201518160040160006101000a81548160ff02191690831515021790555050508473ffffffffffffffffffffffffffffffffffffffff166323b872dd3330876040518463ffffffff1660e01b8152600401610c02939291906112c8565b600060405180830381600087803b158015610c1c57600080fd5b505af1158015610c30573d6000803e3d6000fd5b50505050610c3e6001610cb8565b80915050610c4a610ca0565b9392505050565b600260005403610c96576040517f08c379a0000000000000000000000000000000000000000000000000000000008152600401610c8d90611449565b60405180910390fd5b6002600081905550565b6001600081905550565b600081600001549050919050565b6001816000016000828254019250508190555050565b6040518060a00160405280600073ffffffffffffffffffffffffffffffffffffffff16815260200160008152602001600073ffffffffffffffffffffffffffffffffffffffff168152602001600081526020016000151581525090565b600080fd5b6000819050919050565b610d4381610d30565b8114610d4e57600080fd5b50565b600081359050610d6081610d3a565b92915050565b60008060408385031215610d7d57610d7c610d2b565b5b6000610d8b85828601610d51565b9250506020610d9c85828601610d51565b9150509250929050565b600060208284031215610dbc57610dbb610d2b565b5b6000610dca84828501610d51565b91505092915050565b600081519050919050565b600082825260208201905092915050565b6000819050602082019050919050565b600073ffffffffffffffffffffffffffffffffffffffff82169050919050565b6000610e2a82610dff565b9050919050565b610e3a81610e1f565b82525050565b610e4981610d30565b82525050565b6000610e5a82610dff565b9050919050565b610e6a81610e4f565b82525050565b60008115159050919050565b610e8581610e70565b82525050565b60a082016000820151610ea16000850182610e31565b506020820151610eb46020850182610e40565b506040820151610ec76040850182610e61565b506060820151610eda6060850182610e40565b506080820151610eed6080850182610e7c565b50505050565b6000610eff8383610e8b565b60a08301905092915050565b6000602082019050919050565b6000610f2382610dd3565b610f2d8185610dde565b9350610f3883610def565b8060005b83811015610f69578151610f508882610ef3565b9750610f5b83610f0b565b925050600181019050610f3c565b5085935050505092915050565b60006020820190508181036000830152610f908184610f18565b905092915050565b60a082016000820151610fae6000850182610e31565b506020820151610fc16020850182610e40565b506040820151610fd46040850182610e61565b506060820151610fe76060850182610e40565b506080820151610ffa6080850182610e7c565b50505050565b600060a0820190506110156000830184610f98565b92915050565b61102481610e1f565b82525050565b61103381610d30565b82525050565b61104281610e4f565b82525050565b61105181610e70565b82525050565b600060a08201905061106c600083018861101b565b611079602083018761102a565b6110866040830186611039565b611093606083018561102a565b6110a06080830184611048565b9695505050505050565b60006020820190506110bf600083018461102a565b92915050565b6110ce81610e1f565b81146110d957600080fd5b50565b6000813590506110eb816110c5565b92915050565b60008060006060848603121561110a57611109610d2b565b5b6000611118868287016110dc565b935050602061112986828701610d51565b925050604061113a86828701610d51565b9150509250925092565b7f4e487b7100000000000000000000000000000000000000000000000000000000600052603260045260246000fd5b600082825260208201905092915050565b7f596f7520617265206e6f74207468652073656c6c657200000000000000000000600082015250565b60006111ba601683611173565b91506111c582611184565b602082019050919050565b600060208201905081810360008301526111e9816111ad565b9050919050565b7f4974656d20697320616c726561647920736f6c64000000000000000000000000600082015250565b6000611226601483611173565b9150611231826111f0565b602082019050919050565b6000602082019050818103600083015261125581611219565b9050919050565b7f5072696365206973206e6f7420636f7272656374000000000000000000000000600082015250565b6000611292601483611173565b915061129d8261125c565b602082019050919050565b600060208201905081810360008301526112c181611285565b9050919050565b60006060820190506112dd600083018661101b565b6112ea602083018561101b565b6112f7604083018461102a565b949350505050565b7f5072696365206d757374206265206174206c6561737420312077656900000000600082015250565b6000611335601c83611173565b9150611340826112ff565b602082019050919050565b6000602082019050818103600083015261136481611328565b9050919050565b7f5072696365206d75737420626520657175616c20746f206c697374696e67207060008201527f7269636500000000000000000000000000000000000000000000000000000000602082015250565b60006113c7602483611173565b91506113d28261136b565b604082019050919050565b600060208201905081810360008301526113f6816113ba565b9050919050565b7f5265656e7472616e637947756172643a207265656e7472616e742063616c6c00600082015250565b6000611433601f83611173565b915061143e826113fd565b602082019050919050565b6000602082019050818103600083015261146281611426565b905091905056fea2646970667358221220f17b864b66614d2ff004f1ac2f9e5c7c43bb607b273317f27ab5e24b85d1b71364736f6c63430008180033",
  "linkReferences": {},
  "deployedLinkReferences": {}
}