{
  "_format": "hh-sol-artifact-1",
  "contractName": "TTM_NFT",
  "sourceName": "contracts/TTM_NFT.sol",
  "abi": [
    {
      "inputs": [
        {
          "internalType": "address",
          "name": "_nftMarketPlaceAddress",
          "type": "address"
        }
      ],
      "stateMutability": "nonpayable",
      "type": "constructor"
    },
    {
      "anonymous": false,
      "inputs": [
        {
          "indexed": true,
          "internalType": "address",
          "name": "owner",
          "type": "address"
        },
        {
          "indexed": true,
          "internalType": "address",
          "name": "approved",
          "type": "address"
        },
        {
          "indexed": true,
          "internalType": "uint256",
          "name": "tokenId",
          "type": "uint256"
        }
      ],
      "name": "Approval",
      "type": "event"
    },
    {
      "anonymous": false,
      "inputs": [
        {
          "indexed": true,
          "internalType": "address",
          "name": "owner",
          "type": "address"
        },
        {
          "indexed": true,
          "internalType": "address",
          "name": "operator",
          "type": "address"
        },
        {
          "indexed": false,
          "internalType": "bool",
          "name": "approved",
          "type": "bool"
        }
      ],
      "name": "ApprovalForAll",
      "type": "event"
    },
    {
      "anonymous": false,
      "inputs": [
        {
          "indexed": true,
          "internalType": "address",
          "name": "previousOwner",
          "type": "address"
        },
        {
          "indexed": true,
          "internalType": "address",
          "name": "newOwner",
          "type": "address"
        }
      ],
      "name": "OwnershipTransferred",
      "type": "event"
    },
    {
      "anonymous": false,
      "inputs": [
        {
          "indexed": true,
          "internalType": "address",
          "name": "from",
          "type": "address"
        },
        {
          "indexed": true,
          "internalType": "address",
          "name": "to",
          "type": "address"
        },
        {
          "indexed": true,
          "internalType": "uint256",
          "name": "tokenId",
          "type": "uint256"
        }
      ],
      "name": "Transfer",
      "type": "event"
    },
    {
      "inputs": [
        {
          "internalType": "address",
          "name": "to",
          "type": "address"
        },
        {
          "internalType": "uint256",
          "name": "tokenId",
          "type": "uint256"
        }
      ],
      "name": "approve",
      "outputs": [],
      "stateMutability": "nonpayable",
      "type": "function"
    },
    {
      "inputs": [
        {
          "internalType": "address",
          "name": "owner",
          "type": "address"
        }
      ],
      "name": "balanceOf",
      "outputs": [
        {
          "internalType": "uint256",
          "name": "",
          "type": "uint256"
        }
      ],
      "stateMutability": "view",
      "type": "function"
    },
    {
      "inputs": [
        {
          "internalType": "uint256",
          "name": "tokenId",
          "type": "uint256"
        }
      ],
      "name": "buyImage",
      "outputs": [],
      "stateMutability": "payable",
      "type": "function"
    },
    {
      "inputs": [
        {
          "internalType": "uint256",
          "name": "tokenId",
          "type": "uint256"
        }
      ],
      "name": "getApproved",
      "outputs": [
        {
          "internalType": "address",
          "name": "",
          "type": "address"
        }
      ],
      "stateMutability": "view",
      "type": "function"
    },
    {
      "inputs": [
        {
          "internalType": "uint256",
          "name": "",
          "type": "uint256"
        }
      ],
      "name": "images",
      "outputs": [
        {
          "internalType": "string",
          "name": "uri",
          "type": "string"
        },
        {
          "internalType": "uint256",
          "name": "price",
          "type": "uint256"
        }
      ],
      "stateMutability": "view",
      "type": "function"
    },
    {
      "inputs": [
        {
          "internalType": "address",
          "name": "owner",
          "type": "address"
        },
        {
          "internalType": "address",
          "name": "operator",
          "type": "address"
        }
      ],
      "name": "isApprovedForAll",
      "outputs": [
        {
          "internalType": "bool",
          "name": "",
          "type": "bool"
        }
      ],
      "stateMutability": "view",
      "type": "function"
    },
    {
      "inputs": [
        {
          "internalType": "address",
          "name": "to",
          "type": "address"
        },
        {
          "internalType": "string",
          "name": "uri",
          "type": "string"
        },
        {
          "internalType": "uint256",
          "name": "price",
          "type": "uint256"
        }
      ],
      "name": "mint",
      "outputs": [],
      "stateMutability": "nonpayable",
      "type": "function"
    },
    {
      "inputs": [],
      "name": "name",
      "outputs": [
        {
          "internalType": "string",
          "name": "",
          "type": "string"
        }
      ],
      "stateMutability": "view",
      "type": "function"
    },
    {
      "inputs": [],
      "name": "nextTokenId",
      "outputs": [
        {
          "internalType": "uint256",
          "name": "",
          "type": "uint256"
        }
      ],
      "stateMutability": "view",
      "type": "function"
    },
    {
      "inputs": [],
      "name": "owner",
      "outputs": [
        {
          "internalType": "address",
          "name": "",
          "type": "address"
        }
      ],
      "stateMutability": "view",
      "type": "function"
    },
    {
      "inputs": [
        {
          "internalType": "uint256",
          "name": "tokenId",
          "type": "uint256"
        }
      ],
      "name": "ownerOf",
      "outputs": [
        {
          "internalType": "address",
          "name": "",
          "type": "address"
        }
      ],
      "stateMutability": "view",
      "type": "function"
    },
    {
      "inputs": [],
      "name": "renounceOwnership",
      "outputs": [],
      "stateMutability": "nonpayable",
      "type": "function"
    },
    {
      "inputs": [
        {
          "internalType": "address",
          "name": "from",
          "type": "address"
        },
        {
          "internalType": "address",
          "name": "to",
          "type": "address"
        },
        {
          "internalType": "uint256",
          "name": "tokenId",
          "type": "uint256"
        }
      ],
      "name": "safeTransferFrom",
      "outputs": [],
      "stateMutability": "nonpayable",
      "type": "function"
    },
    {
      "inputs": [
        {
          "internalType": "address",
          "name": "from",
          "type": "address"
        },
        {
          "internalType": "address",
          "name": "to",
          "type": "address"
        },
        {
          "internalType": "uint256",
          "name": "tokenId",
          "type": "uint256"
        },
        {
          "internalType": "bytes",
          "name": "data",
          "type": "bytes"
        }
      ],
      "name": "safeTransferFrom",
      "outputs": [],
      "stateMutability": "nonpayable",
      "type": "function"
    },
    {
      "inputs": [
        {
          "internalType": "address",
          "name": "operator",
          "type": "address"
        },
        {
          "internalType": "bool",
          "name": "approved",
          "type": "bool"
        }
      ],
      "name": "setApprovalForAll",
      "outputs": [],
      "stateMutability": "nonpayable",
      "type": "function"
    },
    {
      "inputs": [
        {
          "internalType": "uint256",
          "name": "tokenId",
          "type": "uint256"
        },
        {
          "internalType": "uint256",
          "name": "price",
          "type": "uint256"
        }
      ],
      "name": "setImagePrice",
      "outputs": [],
      "stateMutability": "nonpayable",
      "type": "function"
    },
    {
      "inputs": [
        {
          "internalType": "bytes4",
          "name": "interfaceId",
          "type": "bytes4"
        }
      ],
      "name": "supportsInterface",
      "outputs": [
        {
          "internalType": "bool",
          "name": "",
          "type": "bool"
        }
      ],
      "stateMutability": "view",
      "type": "function"
    },
    {
      "inputs": [],
      "name": "symbol",
      "outputs": [
        {
          "internalType": "string",
          "name": "",
          "type": "string"
        }
      ],
      "stateMutability": "view",
      "type": "function"
    },
    {
      "inputs": [
        {
          "internalType": "uint256",
          "name": "tokenId",
          "type": "uint256"
        }
      ],
      "name": "tokenURI",
      "outputs": [
        {
          "internalType": "string",
          "name": "",
          "type": "string"
        }
      ],
      "stateMutability": "view",
      "type": "function"
    },
    {
      "inputs": [
        {
          "internalType": "address",
          "name": "from",
          "type": "address"
        },
        {
          "internalType": "address",
          "name": "to",
          "type": "address"
        },
        {
          "internalType": "uint256",
          "name": "tokenId",
          "type": "uint256"
        }
      ],
      "name": "transferFrom",
      "outputs": [],
      "stateMutability": "nonpayable",
      "type": "function"
    },
    {
      "inputs": [
        {
          "internalType": "address",
          "name": "newOwner",
          "type": "address"
        }
      ],
      "name": "transferOwnership",
      "outputs": [],
      "stateMutability": "nonpayable",
      "type": "function"
    }
  ],
  "bytecode": "0x608060405260006007553480156200001657600080fd5b50604051620039473803806200394783398181016040528101906200003c91906200026e565b6040518060400160405280600f81526020017f544f20544845204d4f4f4e204e465400000000000000000000000000000000008152506040518060400160405280600781526020017f54544d5f4e4654000000000000000000000000000000000000000000000000008152508160009081620000b991906200051a565b508060019081620000cb91906200051a565b505050620000ee620000e26200013660201b60201c565b6200013e60201b60201c565b80600860006101000a81548173ffffffffffffffffffffffffffffffffffffffff021916908373ffffffffffffffffffffffffffffffffffffffff1602179055505062000601565b600033905090565b6000600660009054906101000a900473ffffffffffffffffffffffffffffffffffffffff16905081600660006101000a81548173ffffffffffffffffffffffffffffffffffffffff021916908373ffffffffffffffffffffffffffffffffffffffff1602179055508173ffffffffffffffffffffffffffffffffffffffff168173ffffffffffffffffffffffffffffffffffffffff167f8be0079c531659141344cd1fd0a4f28419497f9722a3daafe3b4186f6b6457e060405160405180910390a35050565b600080fd5b600073ffffffffffffffffffffffffffffffffffffffff82169050919050565b6000620002368262000209565b9050919050565b620002488162000229565b81146200025457600080fd5b50565b60008151905062000268816200023d565b92915050565b60006020828403121562000287576200028662000204565b5b6000620002978482850162000257565b91505092915050565b600081519050919050565b7f4e487b7100000000000000000000000000000000000000000000000000000000600052604160045260246000fd5b7f4e487b7100000000000000000000000000000000000000000000000000000000600052602260045260246000fd5b600060028204905060018216806200032257607f821691505b602082108103620003385762000337620002da565b5b50919050565b60008190508160005260206000209050919050565b60006020601f8301049050919050565b600082821b905092915050565b600060088302620003a27fffffffffffffffffffffffffffffffffffffffffffffffffffffffffffffffff8262000363565b620003ae868362000363565b95508019841693508086168417925050509392505050565b6000819050919050565b6000819050919050565b6000620003fb620003f5620003ef84620003c6565b620003d0565b620003c6565b9050919050565b6000819050919050565b6200041783620003da565b6200042f620004268262000402565b84845462000370565b825550505050565b600090565b6200044662000437565b620004538184846200040c565b505050565b5b818110156200047b576200046f6000826200043c565b60018101905062000459565b5050565b601f821115620004ca5762000494816200033e565b6200049f8462000353565b81016020851015620004af578190505b620004c7620004be8562000353565b83018262000458565b50505b505050565b600082821c905092915050565b6000620004ef60001984600802620004cf565b1980831691505092915050565b60006200050a8383620004dc565b9150826002028217905092915050565b6200052582620002a0565b67ffffffffffffffff811115620005415762000540620002ab565b5b6200054d825462000309565b6200055a8282856200047f565b600060209050601f8311600181146200059257600084156200057d578287015190505b620005898582620004fc565b865550620005f9565b601f198416620005a2866200033e565b60005b82811015620005cc57848901518255600182019150602085019450602081019050620005a5565b86831015620005ec5784890151620005e8601f891682620004dc565b8355505b6001600288020188555050505b505050505050565b61333680620006116000396000f3fe60806040526004361061012a5760003560e01c806375794a3c116100ab578063b88d4fde1161006f578063b88d4fde146103e4578063ba7aef431461040d578063c87b56dd14610436578063de3be7ca14610473578063e985e9c51461049c578063f2fde38b146104d95761012a565b806375794a3c146102fc57806384856482146103275780638da5cb5b1461036557806395d89b4114610390578063a22cb465146103bb5761012a565b806323b872dd116100f257806323b872dd1461021957806342842e0e146102425780636352211e1461026b57806370a08231146102a8578063715018a6146102e55761012a565b806301ffc9a71461012f57806303e6af2e1461016c57806306fdde0314610188578063081812fc146101b3578063095ea7b3146101f0575b600080fd5b34801561013b57600080fd5b5061015660048036038101906101519190611f88565b610502565b6040516101639190611fd0565b60405180910390f35b61018660048036038101906101819190612021565b6105e4565b005b34801561019457600080fd5b5061019d6106e8565b6040516101aa91906120de565b60405180910390f35b3480156101bf57600080fd5b506101da60048036038101906101d59190612021565b61077a565b6040516101e79190612141565b60405180910390f35b3480156101fc57600080fd5b5061021760048036038101906102129190612188565b6107c0565b005b34801561022557600080fd5b50610240600480360381019061023b91906121c8565b6108d7565b005b34801561024e57600080fd5b50610269600480360381019061026491906121c8565b610937565b005b34801561027757600080fd5b50610292600480360381019061028d9190612021565b610957565b60405161029f9190612141565b60405180910390f35b3480156102b457600080fd5b506102cf60048036038101906102ca919061221b565b6109dd565b6040516102dc9190612257565b60405180910390f35b3480156102f157600080fd5b506102fa610a94565b005b34801561030857600080fd5b50610311610aa8565b60405161031e9190612257565b60405180910390f35b34801561033357600080fd5b5061034e60048036038101906103499190612021565b610aae565b60405161035c929190612272565b60405180910390f35b34801561037157600080fd5b5061037a610b5a565b6040516103879190612141565b60405180910390f35b34801561039c57600080fd5b506103a5610b84565b6040516103b291906120de565b60405180910390f35b3480156103c757600080fd5b506103e260048036038101906103dd91906122ce565b610c16565b005b3480156103f057600080fd5b5061040b60048036038101906104069190612443565b610c2c565b005b34801561041957600080fd5b50610434600480360381019061042f9190612567565b610c8e565b005b34801561044257600080fd5b5061045d60048036038101906104589190612021565b610d78565b60405161046a91906120de565b60405180910390f35b34801561047f57600080fd5b5061049a600480360381019061049591906125d6565b610de0565b005b3480156104a857600080fd5b506104c360048036038101906104be9190612616565b610e07565b6040516104d09190611fd0565b60405180910390f35b3480156104e557600080fd5b5061050060048036038101906104fb919061221b565b610e9b565b005b60007f80ac58cd000000000000000000000000000000000000000000000000000000007bffffffffffffffffffffffffffffffffffffffffffffffffffffffff1916827bffffffffffffffffffffffffffffffffffffffffffffffffffffffff191614806105cd57507f5b5e139f000000000000000000000000000000000000000000000000000000007bffffffffffffffffffffffffffffffffffffffffffffffffffffffff1916827bffffffffffffffffffffffffffffffffffffffffffffffffffffffff1916145b806105dd57506105dc82610f1e565b5b9050919050565b6105ed81610f88565b61062c576040517f08c379a0000000000000000000000000000000000000000000000000000000008152600401610623906126a2565b60405180910390fd5b6009600082815260200190815260200160002060010154341015610685576040517f08c379a000000000000000000000000000000000000000000000000000000000815260040161067c9061270e565b60405180910390fd5b600061069082610957565b90508073ffffffffffffffffffffffffffffffffffffffff166108fc349081150290604051600060405180830381858888f193505050501580156106d8573d6000803e3d6000fd5b506106e4813384610fc9565b5050565b6060600080546106f79061275d565b80601f01602080910402602001604051908101604052809291908181526020018280546107239061275d565b80156107705780601f1061074557610100808354040283529160200191610770565b820191906000526020600020905b81548152906001019060200180831161075357829003601f168201915b5050505050905090565b6000610785826112c2565b6004600083815260200190815260200160002060009054906101000a900473ffffffffffffffffffffffffffffffffffffffff169050919050565b60006107cb82610957565b90508073ffffffffffffffffffffffffffffffffffffffff168373ffffffffffffffffffffffffffffffffffffffff160361083b576040517f08c379a000000000000000000000000000000000000000000000000000000000815260040161083290612800565b60405180910390fd5b8073ffffffffffffffffffffffffffffffffffffffff1661085a61130d565b73ffffffffffffffffffffffffffffffffffffffff16148061088957506108888161088361130d565b610e07565b5b6108c8576040517f08c379a00000000000000000000000000000000000000000000000000000000081526004016108bf90612892565b60405180910390fd5b6108d28383611315565b505050565b6108e86108e261130d565b826113ce565b610927576040517f08c379a000000000000000000000000000000000000000000000000000000000815260040161091e90612924565b60405180910390fd5b610932838383610fc9565b505050565b61095283838360405180602001604052806000815250610c2c565b505050565b60008061096383611463565b9050600073ffffffffffffffffffffffffffffffffffffffff168173ffffffffffffffffffffffffffffffffffffffff16036109d4576040517f08c379a00000000000000000000000000000000000000000000000000000000081526004016109cb90612990565b60405180910390fd5b80915050919050565b60008073ffffffffffffffffffffffffffffffffffffffff168273ffffffffffffffffffffffffffffffffffffffff1603610a4d576040517f08c379a0000000000000000000000000000000000000000000000000000000008152600401610a4490612a22565b60405180910390fd5b600360008373ffffffffffffffffffffffffffffffffffffffff1673ffffffffffffffffffffffffffffffffffffffff168152602001908152602001600020549050919050565b610a9c6114a0565b610aa6600061151e565b565b60075481565b6009602052806000526040600020600091509050806000018054610ad19061275d565b80601f0160208091040260200160405190810160405280929190818152602001828054610afd9061275d565b8015610b4a5780601f10610b1f57610100808354040283529160200191610b4a565b820191906000526020600020905b815481529060010190602001808311610b2d57829003601f168201915b5050505050908060010154905082565b6000600660009054906101000a900473ffffffffffffffffffffffffffffffffffffffff16905090565b606060018054610b939061275d565b80601f0160208091040260200160405190810160405280929190818152602001828054610bbf9061275d565b8015610c0c5780601f10610be157610100808354040283529160200191610c0c565b820191906000526020600020905b815481529060010190602001808311610bef57829003601f168201915b5050505050905090565b610c28610c2161130d565b83836115e4565b5050565b610c3d610c3761130d565b836113ce565b610c7c576040517f08c379a0000000000000000000000000000000000000000000000000000000008152600401610c7390612924565b60405180910390fd5b610c8884848484611750565b50505050565b610c966114a0565b610ca2836007546117ac565b6040518060400160405280838152602001828152506009600060075481526020019081526020016000206000820151816000019081610ce19190612bee565b506020820151816001015590505060076000815480929190610d0290612cef565b9190505550610d34600860009054906101000a900473ffffffffffffffffffffffffffffffffffffffff166001610c16565b610d736040518060400160405280601c81526020017f203d3d3d3e204d696e746564206e746620746f20616464726573732000000000815250846117ca565b505050565b6060610d83826112c2565b6000610d8d611866565b90506000815111610dad5760405180602001604052806000815250610dd8565b80610db78461187d565b604051602001610dc8929190612d73565b6040516020818303038152906040525b915050919050565b610de86114a0565b8060096000848152602001908152602001600020600101819055505050565b6000600560008473ffffffffffffffffffffffffffffffffffffffff1673ffffffffffffffffffffffffffffffffffffffff16815260200190815260200160002060008373ffffffffffffffffffffffffffffffffffffffff1673ffffffffffffffffffffffffffffffffffffffff16815260200190815260200160002060009054906101000a900460ff16905092915050565b610ea36114a0565b600073ffffffffffffffffffffffffffffffffffffffff168173ffffffffffffffffffffffffffffffffffffffff1603610f12576040517f08c379a0000000000000000000000000000000000000000000000000000000008152600401610f0990612e09565b60405180910390fd5b610f1b8161151e565b50565b60007f01ffc9a7000000000000000000000000000000000000000000000000000000007bffffffffffffffffffffffffffffffffffffffffffffffffffffffff1916827bffffffffffffffffffffffffffffffffffffffffffffffffffffffff1916149050919050565b60008073ffffffffffffffffffffffffffffffffffffffff16610faa83611463565b73ffffffffffffffffffffffffffffffffffffffff1614159050919050565b8273ffffffffffffffffffffffffffffffffffffffff16610fe982610957565b73ffffffffffffffffffffffffffffffffffffffff161461103f576040517f08c379a000000000000000000000000000000000000000000000000000000000815260040161103690612e9b565b60405180910390fd5b600073ffffffffffffffffffffffffffffffffffffffff168273ffffffffffffffffffffffffffffffffffffffff16036110ae576040517f08c379a00000000000000000000000000000000000000000000000000000000081526004016110a590612f2d565b60405180910390fd5b6110bb838383600161194b565b8273ffffffffffffffffffffffffffffffffffffffff166110db82610957565b73ffffffffffffffffffffffffffffffffffffffff1614611131576040517f08c379a000000000000000000000000000000000000000000000000000000000815260040161112890612e9b565b60405180910390fd5b6004600082815260200190815260200160002060006101000a81549073ffffffffffffffffffffffffffffffffffffffff02191690556001600360008573ffffffffffffffffffffffffffffffffffffffff1673ffffffffffffffffffffffffffffffffffffffff168152602001908152602001600020600082825403925050819055506001600360008473ffffffffffffffffffffffffffffffffffffffff1673ffffffffffffffffffffffffffffffffffffffff16815260200190815260200160002060008282540192505081905550816002600083815260200190815260200160002060006101000a81548173ffffffffffffffffffffffffffffffffffffffff021916908373ffffffffffffffffffffffffffffffffffffffff160217905550808273ffffffffffffffffffffffffffffffffffffffff168473ffffffffffffffffffffffffffffffffffffffff167fddf252ad1be2c89b69c2b068fc378daa952ba7f163c4a11628f55a4df523b3ef60405160405180910390a46112bd8383836001611951565b505050565b6112cb81610f88565b61130a576040517f08c379a000000000000000000000000000000000000000000000000000000000815260040161130190612990565b60405180910390fd5b50565b600033905090565b816004600083815260200190815260200160002060006101000a81548173ffffffffffffffffffffffffffffffffffffffff021916908373ffffffffffffffffffffffffffffffffffffffff160217905550808273ffffffffffffffffffffffffffffffffffffffff1661138883610957565b73ffffffffffffffffffffffffffffffffffffffff167f8c5be1e5ebec7d5bd14f71427d1e84f3dd0314c0f7b2291e5b200ac8c7c3b92560405160405180910390a45050565b6000806113da83610957565b90508073ffffffffffffffffffffffffffffffffffffffff168473ffffffffffffffffffffffffffffffffffffffff16148061141c575061141b8185610e07565b5b8061145a57508373ffffffffffffffffffffffffffffffffffffffff166114428461077a565b73ffffffffffffffffffffffffffffffffffffffff16145b91505092915050565b60006002600083815260200190815260200160002060009054906101000a900473ffffffffffffffffffffffffffffffffffffffff169050919050565b6114a861130d565b73ffffffffffffffffffffffffffffffffffffffff166114c6610b5a565b73ffffffffffffffffffffffffffffffffffffffff161461151c576040517f08c379a000000000000000000000000000000000000000000000000000000000815260040161151390612f99565b60405180910390fd5b565b6000600660009054906101000a900473ffffffffffffffffffffffffffffffffffffffff16905081600660006101000a81548173ffffffffffffffffffffffffffffffffffffffff021916908373ffffffffffffffffffffffffffffffffffffffff1602179055508173ffffffffffffffffffffffffffffffffffffffff168173ffffffffffffffffffffffffffffffffffffffff167f8be0079c531659141344cd1fd0a4f28419497f9722a3daafe3b4186f6b6457e060405160405180910390a35050565b8173ffffffffffffffffffffffffffffffffffffffff168373ffffffffffffffffffffffffffffffffffffffff1603611652576040517f08c379a000000000000000000000000000000000000000000000000000000000815260040161164990613005565b60405180910390fd5b80600560008573ffffffffffffffffffffffffffffffffffffffff1673ffffffffffffffffffffffffffffffffffffffff16815260200190815260200160002060008473ffffffffffffffffffffffffffffffffffffffff1673ffffffffffffffffffffffffffffffffffffffff16815260200190815260200160002060006101000a81548160ff0219169083151502179055508173ffffffffffffffffffffffffffffffffffffffff168373ffffffffffffffffffffffffffffffffffffffff167f17307eab39ab6107e8899845ad3d59bd9653f200f220920489ca2b5937696c31836040516117439190611fd0565b60405180910390a3505050565b61175b848484610fc9565b61176784848484611957565b6117a6576040517f08c379a000000000000000000000000000000000000000000000000000000000815260040161179d90613097565b60405180910390fd5b50505050565b6117c6828260405180602001604052806000815250611ade565b5050565b61186282826040516024016117e09291906130b7565b6040516020818303038152906040527f319af333000000000000000000000000000000000000000000000000000000007bffffffffffffffffffffffffffffffffffffffffffffffffffffffff19166020820180517bffffffffffffffffffffffffffffffffffffffffffffffffffffffff8381831617835250505050611b39565b5050565b606060405180602001604052806000815250905090565b60606000600161188c84611b53565b01905060008167ffffffffffffffff8111156118ab576118aa612318565b5b6040519080825280601f01601f1916602001820160405280156118dd5781602001600182028036833780820191505090505b509050600082602001820190505b600115611940578080600190039150507f3031323334353637383961626364656600000000000000000000000000000000600a86061a8153600a8581611934576119336130e7565b5b049450600085036118eb575b819350505050919050565b50505050565b50505050565b60006119788473ffffffffffffffffffffffffffffffffffffffff16611ca6565b15611ad1578373ffffffffffffffffffffffffffffffffffffffff1663150b7a026119a161130d565b8786866040518563ffffffff1660e01b81526004016119c3949392919061316b565b6020604051808303816000875af19250505080156119ff57506040513d601f19601f820116820180604052508101906119fc91906131cc565b60015b611a81573d8060008114611a2f576040519150601f19603f3d011682016040523d82523d6000602084013e611a34565b606091505b506000815103611a79576040517f08c379a0000000000000000000000000000000000000000000000000000000008152600401611a7090613097565b60405180910390fd5b805181602001fd5b63150b7a0260e01b7bffffffffffffffffffffffffffffffffffffffffffffffffffffffff1916817bffffffffffffffffffffffffffffffffffffffffffffffffffffffff191614915050611ad6565b600190505b949350505050565b611ae88383611cc9565b611af56000848484611957565b611b34576040517f08c379a0000000000000000000000000000000000000000000000000000000008152600401611b2b90613097565b60405180910390fd5b505050565b611b5081611b48611ee6611f07565b63ffffffff16565b50565b600080600090507a184f03e93ff9f4daa797ed6e38ed64bf6a1f0100000000000000008310611bb1577a184f03e93ff9f4daa797ed6e38ed64bf6a1f0100000000000000008381611ba757611ba66130e7565b5b0492506040810190505b6d04ee2d6d415b85acef81000000008310611bee576d04ee2d6d415b85acef81000000008381611be457611be36130e7565b5b0492506020810190505b662386f26fc100008310611c1d57662386f26fc100008381611c1357611c126130e7565b5b0492506010810190505b6305f5e1008310611c46576305f5e1008381611c3c57611c3b6130e7565b5b0492506008810190505b6127108310611c6b576127108381611c6157611c606130e7565b5b0492506004810190505b60648310611c8e5760648381611c8457611c836130e7565b5b0492506002810190505b600a8310611c9d576001810190505b80915050919050565b6000808273ffffffffffffffffffffffffffffffffffffffff163b119050919050565b600073ffffffffffffffffffffffffffffffffffffffff168273ffffffffffffffffffffffffffffffffffffffff1603611d38576040517f08c379a0000000000000000000000000000000000000000000000000000000008152600401611d2f90613245565b60405180910390fd5b611d4181610f88565b15611d81576040517f08c379a0000000000000000000000000000000000000000000000000000000008152600401611d78906132b1565b60405180910390fd5b611d8f60008383600161194b565b611d9881610f88565b15611dd8576040517f08c379a0000000000000000000000000000000000000000000000000000000008152600401611dcf906132b1565b60405180910390fd5b6001600360008473ffffffffffffffffffffffffffffffffffffffff1673ffffffffffffffffffffffffffffffffffffffff16815260200190815260200160002060008282540192505081905550816002600083815260200190815260200160002060006101000a81548173ffffffffffffffffffffffffffffffffffffffff021916908373ffffffffffffffffffffffffffffffffffffffff160217905550808273ffffffffffffffffffffffffffffffffffffffff16600073ffffffffffffffffffffffffffffffffffffffff167fddf252ad1be2c89b69c2b068fc378daa952ba7f163c4a11628f55a4df523b3ef60405160405180910390a4611ee2600083836001611951565b5050565b60006a636f6e736f6c652e6c6f679050600080835160208501845afa505050565b611f12819050919050565b611f1a6132d1565b565b6000604051905090565b600080fd5b600080fd5b60007fffffffff0000000000000000000000000000000000000000000000000000000082169050919050565b611f6581611f30565b8114611f7057600080fd5b50565b600081359050611f8281611f5c565b92915050565b600060208284031215611f9e57611f9d611f26565b5b6000611fac84828501611f73565b91505092915050565b60008115159050919050565b611fca81611fb5565b82525050565b6000602082019050611fe56000830184611fc1565b92915050565b6000819050919050565b611ffe81611feb565b811461200957600080fd5b50565b60008135905061201b81611ff5565b92915050565b60006020828403121561203757612036611f26565b5b60006120458482850161200c565b91505092915050565b600081519050919050565b600082825260208201905092915050565b60005b8381101561208857808201518184015260208101905061206d565b60008484015250505050565b6000601f19601f8301169050919050565b60006120b08261204e565b6120ba8185612059565b93506120ca81856020860161206a565b6120d381612094565b840191505092915050565b600060208201905081810360008301526120f881846120a5565b905092915050565b600073ffffffffffffffffffffffffffffffffffffffff82169050919050565b600061212b82612100565b9050919050565b61213b81612120565b82525050565b60006020820190506121566000830184612132565b92915050565b61216581612120565b811461217057600080fd5b50565b6000813590506121828161215c565b92915050565b6000806040838503121561219f5761219e611f26565b5b60006121ad85828601612173565b92505060206121be8582860161200c565b9150509250929050565b6000806000606084860312156121e1576121e0611f26565b5b60006121ef86828701612173565b935050602061220086828701612173565b92505060406122118682870161200c565b9150509250925092565b60006020828403121561223157612230611f26565b5b600061223f84828501612173565b91505092915050565b61225181611feb565b82525050565b600060208201905061226c6000830184612248565b92915050565b6000604082019050818103600083015261228c81856120a5565b905061229b6020830184612248565b9392505050565b6122ab81611fb5565b81146122b657600080fd5b50565b6000813590506122c8816122a2565b92915050565b600080604083850312156122e5576122e4611f26565b5b60006122f385828601612173565b9250506020612304858286016122b9565b9150509250929050565b600080fd5b600080fd5b7f4e487b7100000000000000000000000000000000000000000000000000000000600052604160045260246000fd5b61235082612094565b810181811067ffffffffffffffff8211171561236f5761236e612318565b5b80604052505050565b6000612382611f1c565b905061238e8282612347565b919050565b600067ffffffffffffffff8211156123ae576123ad612318565b5b6123b782612094565b9050602081019050919050565b82818337600083830152505050565b60006123e66123e184612393565b612378565b90508281526020810184848401111561240257612401612313565b5b61240d8482856123c4565b509392505050565b600082601f83011261242a5761242961230e565b5b813561243a8482602086016123d3565b91505092915050565b6000806000806080858703121561245d5761245c611f26565b5b600061246b87828801612173565b945050602061247c87828801612173565b935050604061248d8782880161200c565b925050606085013567ffffffffffffffff8111156124ae576124ad611f2b565b5b6124ba87828801612415565b91505092959194509250565b600067ffffffffffffffff8211156124e1576124e0612318565b5b6124ea82612094565b9050602081019050919050565b600061250a612505846124c6565b612378565b90508281526020810184848401111561252657612525612313565b5b6125318482856123c4565b509392505050565b600082601f83011261254e5761254d61230e565b5b813561255e8482602086016124f7565b91505092915050565b6000806000606084860312156125805761257f611f26565b5b600061258e86828701612173565b935050602084013567ffffffffffffffff8111156125af576125ae611f2b565b5b6125bb86828701612539565b92505060406125cc8682870161200c565b9150509250925092565b600080604083850312156125ed576125ec611f26565b5b60006125fb8582860161200c565b925050602061260c8582860161200c565b9150509250929050565b6000806040838503121561262d5761262c611f26565b5b600061263b85828601612173565b925050602061264c85828601612173565b9150509250929050565b7f546f6b656e20646f6573206e6f74206578697374000000000000000000000000600082015250565b600061268c601483612059565b915061269782612656565b602082019050919050565b600060208201905081810360008301526126bb8161267f565b9050919050565b7f496e73756666696369656e742066756e64732073656e74000000000000000000600082015250565b60006126f8601783612059565b9150612703826126c2565b602082019050919050565b60006020820190508181036000830152612727816126eb565b9050919050565b7f4e487b7100000000000000000000000000000000000000000000000000000000600052602260045260246000fd5b6000600282049050600182168061277557607f821691505b6020821081036127885761278761272e565b5b50919050565b7f4552433732313a20617070726f76616c20746f2063757272656e74206f776e6560008201527f7200000000000000000000000000000000000000000000000000000000000000602082015250565b60006127ea602183612059565b91506127f58261278e565b604082019050919050565b60006020820190508181036000830152612819816127dd565b9050919050565b7f4552433732313a20617070726f76652063616c6c6572206973206e6f7420746f60008201527f6b656e206f776e6572206f7220617070726f76656420666f7220616c6c000000602082015250565b600061287c603d83612059565b915061288782612820565b604082019050919050565b600060208201905081810360008301526128ab8161286f565b9050919050565b7f4552433732313a2063616c6c6572206973206e6f7420746f6b656e206f776e6560008201527f72206f7220617070726f76656400000000000000000000000000000000000000602082015250565b600061290e602d83612059565b9150612919826128b2565b604082019050919050565b6000602082019050818103600083015261293d81612901565b9050919050565b7f4552433732313a20696e76616c696420746f6b656e2049440000000000000000600082015250565b600061297a601883612059565b915061298582612944565b602082019050919050565b600060208201905081810360008301526129a98161296d565b9050919050565b7f4552433732313a2061646472657373207a65726f206973206e6f74206120766160008201527f6c6964206f776e65720000000000000000000000000000000000000000000000602082015250565b6000612a0c602983612059565b9150612a17826129b0565b604082019050919050565b60006020820190508181036000830152612a3b816129ff565b9050919050565b60008190508160005260206000209050919050565b60006020601f8301049050919050565b600082821b905092915050565b600060088302612aa47fffffffffffffffffffffffffffffffffffffffffffffffffffffffffffffffff82612a67565b612aae8683612a67565b95508019841693508086168417925050509392505050565b6000819050919050565b6000612aeb612ae6612ae184611feb565b612ac6565b611feb565b9050919050565b6000819050919050565b612b0583612ad0565b612b19612b1182612af2565b848454612a74565b825550505050565b600090565b612b2e612b21565b612b39818484612afc565b505050565b5b81811015612b5d57612b52600082612b26565b600181019050612b3f565b5050565b601f821115612ba257612b7381612a42565b612b7c84612a57565b81016020851015612b8b578190505b612b9f612b9785612a57565b830182612b3e565b50505b505050565b600082821c905092915050565b6000612bc560001984600802612ba7565b1980831691505092915050565b6000612bde8383612bb4565b9150826002028217905092915050565b612bf78261204e565b67ffffffffffffffff811115612c1057612c0f612318565b5b612c1a825461275d565b612c25828285612b61565b600060209050601f831160018114612c585760008415612c46578287015190505b612c508582612bd2565b865550612cb8565b601f198416612c6686612a42565b60005b82811015612c8e57848901518255600182019150602085019450602081019050612c69565b86831015612cab5784890151612ca7601f891682612bb4565b8355505b6001600288020188555050505b505050505050565b7f4e487b7100000000000000000000000000000000000000000000000000000000600052601160045260246000fd5b6000612cfa82611feb565b91507fffffffffffffffffffffffffffffffffffffffffffffffffffffffffffffffff8203612d2c57612d2b612cc0565b5b600182019050919050565b600081905092915050565b6000612d4d8261204e565b612d578185612d37565b9350612d6781856020860161206a565b80840191505092915050565b6000612d7f8285612d42565b9150612d8b8284612d42565b91508190509392505050565b7f4f776e61626c653a206e6577206f776e657220697320746865207a65726f206160008201527f6464726573730000000000000000000000000000000000000000000000000000602082015250565b6000612df3602683612059565b9150612dfe82612d97565b604082019050919050565b60006020820190508181036000830152612e2281612de6565b9050919050565b7f4552433732313a207472616e736665722066726f6d20696e636f72726563742060008201527f6f776e6572000000000000000000000000000000000000000000000000000000602082015250565b6000612e85602583612059565b9150612e9082612e29565b604082019050919050565b60006020820190508181036000830152612eb481612e78565b9050919050565b7f4552433732313a207472616e7366657220746f20746865207a65726f2061646460008201527f7265737300000000000000000000000000000000000000000000000000000000602082015250565b6000612f17602483612059565b9150612f2282612ebb565b604082019050919050565b60006020820190508181036000830152612f4681612f0a565b9050919050565b7f4f776e61626c653a2063616c6c6572206973206e6f7420746865206f776e6572600082015250565b6000612f83602083612059565b9150612f8e82612f4d565b602082019050919050565b60006020820190508181036000830152612fb281612f76565b9050919050565b7f4552433732313a20617070726f766520746f2063616c6c657200000000000000600082015250565b6000612fef601983612059565b9150612ffa82612fb9565b602082019050919050565b6000602082019050818103600083015261301e81612fe2565b9050919050565b7f4552433732313a207472616e7366657220746f206e6f6e20455243373231526560008201527f63656976657220696d706c656d656e7465720000000000000000000000000000602082015250565b6000613081603283612059565b915061308c82613025565b604082019050919050565b600060208201905081810360008301526130b081613074565b9050919050565b600060408201905081810360008301526130d181856120a5565b90506130e06020830184612132565b9392505050565b7f4e487b7100000000000000000000000000000000000000000000000000000000600052601260045260246000fd5b600081519050919050565b600082825260208201905092915050565b600061313d82613116565b6131478185613121565b935061315781856020860161206a565b61316081612094565b840191505092915050565b60006080820190506131806000830187612132565b61318d6020830186612132565b61319a6040830185612248565b81810360608301526131ac8184613132565b905095945050505050565b6000815190506131c681611f5c565b92915050565b6000602082840312156131e2576131e1611f26565b5b60006131f0848285016131b7565b91505092915050565b7f4552433732313a206d696e7420746f20746865207a65726f2061646472657373600082015250565b600061322f602083612059565b915061323a826131f9565b602082019050919050565b6000602082019050818103600083015261325e81613222565b9050919050565b7f4552433732313a20746f6b656e20616c7265616479206d696e74656400000000600082015250565b600061329b601c83612059565b91506132a682613265565b602082019050919050565b600060208201905081810360008301526132ca8161328e565b9050919050565b7f4e487b7100000000000000000000000000000000000000000000000000000000600052605160045260246000fdfea2646970667358221220d1087f237ba66e3b6d7ee86ba5efb96e7bce18c9383a54cdeeffa023625c6dc364736f6c63430008180033",
  "linkReferences": {},
  "deployedLinkReferences": {}
}